:03000000020003F8
:03005C0002005F40
:05005F0012006480FEA8
:010064002279
:0E006900494E464F3A636F6D70696C65725B6D
:0A007700534443432D4845585D00F3
:06003200E478FFF6D8FDA2
:080010007900E94400601B7A4D
:0500180000900081785A
:03001D000075A0CB
:0A00200000E493F2A308B800020503
:08002A00A0D9F4DAF275A0FF81
:080038007800E84400600A7939
:030040000075A0A8
:0600430000E4F309D8FC03
:080049007800E84400600C7926
:0B00510000900000E4F0A3D8FCD9FAF6
:03000300758107FD
:0A000600120065E582600302005F4E
:04006500758200227E
:00000001FF
