S1060000020003F4
S106005C02005F3C
S108005F12006480FEA4
S10400642275
S1110069494E464F3A636F6D70696C65725B69
S10E0077534443432D535245435D00A6
S1090032E478FFF6D8FD9E
S10B00107900E94400601B7A49
S1080018009000827855
S106001D0075A0C7
S10D002000E493F2A308B8000205FF
S10B002AA0D9F4DAF275A0FF7D
S10B00387800E84400600A7935
S10600400075A0A4
S109004300E4F309D8FCFF
S10B00497800E84400600C7922
S10E005100900000E4F0A3D8FCD9FAF2
S1060003758107F9
S10D0006120065E582600302005F4A
S1070065758200227A
S9030000FC
